:020000040800F2
:10000000289800209D010008F71600083D160008FA
:10001000F5160008FF0D0008753B00080000000001
:100020000000000000000000000000005939000836
:10003000911000080000000009350008153A00087A
:10004000B7010008B7010008B7010008B7010008B0
:10005000B7010008B7010008B7010008B7010008A0
:10006000B7010008B7010008B7010008B701000890
:10007000B7010008B7010008B7010008B701000880
:10008000010E0008B7010008B7010008B701000819
:10009000B7010008B7010008B7010008B701000860
:1000A000B7010008B7010008B7010008B701000850
:1000B000B7010008B7010008B7010008B701000840
:1000C000B7010008B7010008B7010008B701000830
:1000D000B7010008B7010008B7010008B701000820
:1000E000B7010008B7010008B7010008B701000810
:1000F000B7010008B7010008B7010008B701000800
:10010000B701000841360008B7010008B701000830
:10011000B7010008B7010008B7010008B7010008DF
:10012000B7010008B7010008B7010008050E000874
:10013000B7010008B7010008B7010008B7010008BF
:10014000B7010008B7010008B7010008B7010008AF
:10015000B7010008B7010008B7010008B70100089F
:10016000B7010008B7010008B7010008B70100088F
:10017000B7010008B7010008B7010008B70100087F
:10018000B7010008B7010008DFF80CD000F0FCFB55
:1001900000480047914600082898002006488047FC
:1001A00006480047FEE7FEE7FEE7FEE7FEE7FEE75C
:1001B000FEE7FEE7FEE7FEE7193A000889010008BE
:1001C0002DE9F05F0546002092469B46884606468C
:1001D000814640241BE0284641464746224600F01F
:1001E0009EFA53465A46C01A914110D311461846FA
:1001F000224600F085FA2D1A67EB01084F46224689
:100200000120002100F07CFA17EB00094E41201E6E
:10021000A4F10104DFDC484631462A464346BDE8E6
:10022000F09F00000048704794B5000810B50446E0
:10023000FFF7F8FF0068005D00F0010010BD40EA24
:1002400001039B0703D009E008C9121F08C0042A54
:10025000FAD203E011F8013B00F8013B521EF9D23B
:100260007047D2B201E000F8012B491EFBD2704763
:100270000022F6E710B513460A4604461946FFF772
:10028000F0FF204610BD421C10F8011B0029FBD1D5
:10029000801A7047CBB203E00178994203D0401C2A
:1002A000521EF9D20020704730B5044600200346A4
:1002B00000E05B1C934203D2E05CCD5C401BF8D0B5
:1002C00030BD2DE9F04791460F4680460446002692
:1002D00014F8015B2DB1FFF7A5FF0068405DC00772
:1002E000F6D12B2D02D02D2D18D0641E4A4639464A
:1002F000204600F036FA27B13968A14201D1C7F88B
:10030000008071054FF002040BD54042002803DD48
:1003100003F068FC0460A007BDE8F08746F480663F
:10032000E4E70028F8DA03F05DFC04606FF00040B9
:10033000F2E72DE9FE4F804681EA0300C00F0C462C
:10034000009021F0004123F00045B8EB0200A941E4
:1003500005D24046214690461C460B46024623F0F5
:100360000040104347D0270DC7F30A00C3F30A51DA
:100370000290401A019040286BDAC3F3130040F456
:10038000801B0098924620B10023D2EB030A63EB56
:100390000B0B01985946C0F14002504600F0B0F9ED
:1003A00006460D4650465946019A00F0C8F910EB32
:1003B00008006141002487EA115284EAE7731A4376
:1003C00040D0009A62B3019A012A4FEA075215DC25
:1003D000001B61EB02014FF0004202EA0752CDE937
:1003E0000042001C41F5801132462B4600F065FAB0
:1003F00003B0BDE8F08F40462146F9E7001B61EBF2
:100400000201001C41F5801300185B412018A2F581
:10041000001747EB030140EAD570B6196D4111E0B2
:100420006D084FEA360645EAC0754FEA0752001BD1
:1004300061EB0201001C41F5801149084FEA3000D0
:100440000019514132462B4603B0BDE8F04F00F091
:1004500025BA0098012240000023D0EB020263EB92
:10046000E073009821464FEAE074B8EB000061EBBE
:100470000401E9E783F000435BE781F0004158E7BE
:100480002DE9FE4F81EA030404F0004421F000410D
:1004900000944FF0000B23F0004350EA01045ED0BB
:1004A00052EA03045BD0C3F30A54C1F30A552C4447
:1004B000A4F2F3340194A0FB0254C1F3130141F4FC
:1004C0008011C3F3130343F4801301FB024400FBC8
:1004D000034E840A970A44EA815447EA8357A4FBEF
:1004E000076802958D0A05FB07854FEA932C04FBEC
:1004F0000C542705029D4FEA065847EA1637B5EB1C
:1005000008056EEB070C870E920E47EA811742EA48
:100510008312A7FB0201B6EB0B0164EB00042B0D69
:1005200043EA0C335E1844EB1C50DA465146E7FBB5
:100530000201C5F313044FEA0B3343EA14534FEAA5
:100540000432019C43EA0603A4F10C040294009CCB
:10055000CDE900B400F0B1F903B0BDE8F08F0020A0
:100560000146F9E72DE9F04D81EA030404F0004B60
:1005700021F0004514464FF0000A23F0004150EAF4
:10058000050220D054EA01021DD0C5F30A570246E5
:10059000C5F31303C1F31300C1F30A5640F48015E9
:1005A00043F48013A7EB0608101BD64608F2FD386B
:1005B00073EB050002D308F1010801E092185B41DA
:1005C000B8F1000F03DA00200146BDE8F08D0020ED
:1005D0004FF48011064684460EE0171B73EB0507A7
:1005E00005D3121B63EB050306434CEA010C4908D3
:1005F0004FEA300092185B4150EA0107EDD152EA10
:10060000030012D082EA040083EA0501084305D002
:10061000101BAB4106D20122002306E000224FF05E
:10062000004302E06FF0010253101AEB06004CEB9E
:10063000085110EB0A0041EB0B01BDE8F04D00F052
:100640002DB90EB5C10F80EAE0700844CA07002139
:1006500040F233438DE80E000A460B4600F02DF9B8
:1006600003B000BD70B5C1F30A5201F0004500248B
:10067000C1F3130140F2FF3341F480119A4201DAD1
:10068000002070BD40F233439A42A2F2334203DCB1
:10069000524200F044F800E090402C43F1D0404238
:1006A00070BD000030B5041E71F1000404DB4FF092
:1006B0000044404264EB0101141E73F1000405DBA9
:1006C0001C464FF00043524263EB0403994208BFBB
:1006D000904230BD30B50B46014600202022012457
:1006E00009E021FA02F59D4205D303FA02F5491B00
:1006F00004FA02F52844151EA2F10102F1DC30BD16
:10070000202A04DB203A00FA02F1002070479140D1
:10071000C2F1200320FA03F3194390407047202AC6
:1007200004DB203A21FA02F00021704721FA02F39B
:10073000D040C2F120029140084319467047202A58
:1007400006DBCB17203A41FA02F043EAE07306E0F9
:1007500041FA02F3D040C2F1200291400843194609
:1007600070472DE9F05F82460078002715468B46DA
:100770000AF10104B946302801D09DB113E014F804
:10078000010B0127782803D0582801D045B10AE091
:100790000DB1102D07D10027102514F8010B02E030
:1007A000082500E00A250026B0460EE005FB0800FB
:1007B00005FB06F1012701EB10461FFA80F8B6F59C
:1007C000803F00D3B94614F8010B294600F0EEF83B
:1007D0000028EBDABBF1000F05D00FB1641E00E07A
:1007E0005446CBF80040B9F1000F06D003F0FAF9F7
:1007F00002210160C81EBDE8F09F48EA0640FAE702
:100800000FB4002300B589B00CA900910B996FF0CB
:100810000042CB601E4B06931E4B07930423CDE989
:1008200001321D4A089202466B46002000F04CF946
:1008300009B05DF814FB70B586B006464FF0FF3086
:100840000091CDE90101002015460C460490324686
:10085000694604A8FFF7D4FF03460498211825B180
:1008600008B10A4600E022462A6000280DD0002B7D
:1008700002DD0098884208D0081B0094CDE90104ED
:100880003246694604A8FFF7BBFF06B070BD000002
:10089000010D00081F0D00082D02000810B5141EE0
:1008A00073F1000408DA401C41F1000192185B4129
:1008B0001A4301D120F0010010BD2DE9F04D924600
:1008C0009B4611B1B1FA81F202E0B0FA80F2203217
:1008D0009046FFF715FF04460F4640EA0A0041EA3A
:1008E0000B0153465A46084313D0114653EA010000
:1008F00019D0C8F140025046FFF711FF05460E46D9
:10090000504659464246FFF7FBFE084305D00120FA
:1009100004E020463946BDE8F08D0020054346EA54
:10092000E0762C4337430A986305E40AA0EB0800FD
:100930000022FD0A44EA47540A3002D5002001464D
:10094000E9E7010510196941DDE908450019694128
:10095000BDE8F04DA2E7C1F30A52C1F3130140F222
:10096000FF3341F480119A4202DA002001467047B9
:1009700040F233439A42A2F2334202DC5242FFF782
:10098000CEBEFFF7BDBE0000064C074D06E0E06896
:1009900040F0010394E8070098471034AC42F6D3C6
:1009A000FFF7F6FB88B60008A8B600083A2800D280
:1009B000303820F02002412A01D3A2F137008842CA
:1009C00001D34FF0FF3070472DE9FF4F087881B019
:1009D0009946FF2805D0491C2D2804D00024002367
:1009E00008E000230BE00124F9E703EB830300EBAD
:1009F0004303491C0878FF28F7D104B15B4200206B
:100A00000090147801462D2C01D02B2C04D1521CBF
:100A10002D2C12D00024009400251678FF2E0ED025
:100A20000A24A0FB04C801FB0481002700FB071176
:100A3000521C16EB0C006941EFE70124EBE79944E7
:100A400050EA01020ED00024AA4D2646DFF8A88203
:100A500000F076F982468B46B9F1000009DAC9F157
:100A600000071BE001980021C0E9001105B0BDE8B6
:100A7000F08F074612E0F80707D022462B46304693
:100A80004146FFF7FDFC0646884622462B461046A7
:100A90001946FFF7F5FC04460D467F10002FEAD1FA
:100AA000B9F1000F324643465046594602DAFFF785
:100AB00059FD01E0FFF7E4FC009A0AB181F0004122
:100AC000019AC2E90001D1E72DE9FF4F1F468DB021
:100AD000D7E901464FF0FF382E2045464FF0000978
:100AE0000B90B9696D1C0E988847396A8246884711
:100AF0000028F6D1BAF1FF3F0AD024F4D064002ECA
:100B000011DDBAF12B0F08D0BAF12D0F0BD102E095
:100B1000404611B0ABE744F48064B9696D1C0E988F
:100B200088478246761E6946600501D52D2000E083
:100B30002B208DF8000001F1010B0DF1200809E0D8
:100B4000B9696D1C0E98884782460F9844F400746A
:100B5000761E0560002E02DDBAF1300FF0D00B9941
:100B60008A453ED144F0800406E00F99681CA9F143
:100B7000010944F400740860B9696D1C761E0E9872
:100B8000884782463028F0D02BE00B998A4505D162
:100B9000200603D444F08004761E18E0504603F08B
:100BA000FDF808B30DF11301761E44F400748B4573
:100BB00008D2AAF130000BF8010B200607D5A9F1E5
:100BC000010003E0200602D409F101008146A005DE
:100BD00002D50F99681C0860B9696D1C0E9888478A
:100BE0008246002ED1DC53E0002E51DDBAF1650FB4
:100BF00002D0BAF1450F4BD1A00549D5B9696D1C9A
:100C000024F44074761E0E9888478246002E0CDD30
:100C10002B2804D0BAF12D0F07D144F48074B969A0
:100C20006D1C0E9888478246761EE00501D52D2161
:100C300000E02B2108F8011BCDF82C8021E00DF1FC
:100C40002901761E44F4007488450CD2AAF13000C4
:100C500010F0FF0088F8000002D10B99884509D9EF
:100C600008F1010806E0E00501D5244801E042F260
:100C70000F708146B9696D1C0E98884782460F989F
:100C80000560002E04DD504603F088F80028D6D118
:100C9000F9690E988847FF208BF8000088F800005B
:100CA0000020069007904B466A4608A906A8FFF761
:100CB0008BFEA00502D46FF001002AE714F0240F88
:100CC0000AD0E00714D1DDE906123868031D3B6045
:100CD0000068C0E900120BE0DDE9060100F03CF815
:100CE0000146E00704D13868021D3A6000680160DF
:100CF00028460EE7000024400000F03FF1D8FFFF37
:100D0000426842B1016811F8013B23B1521EC0E9AB
:100D10000012184670470121C160881E7047426862
:100D20005AB1C368016843B983688B4205D0491E34
:100D3000521CC0E90012002070474FF0FF3070478E
:100D40000EB540F2334202920022CDE90022134652
:100D5000FFF7B3FD03B000BD01F0004330B421F054
:100D6000004150EA010206D00A0DA2F56072C1F3FB
:100D70001301002A02DC30BC00207047440F44EA13
:100D8000C104C100E01830BC00EBC250AFF30080DA
:100D90000029A8BF7047401C490008BF20F001008F
:100DA000704710B4B0FA80FC00FA0CF050EA01046D
:100DB00004BF10BC704749B1CCF1200421FA04F4FF
:100DC00011FA0CF118BF012121430843A3EB0C01D8
:100DD000CB1D4FEA00614FEA102042BF002010BC3B
:100DE000704700EBC35010440029A4BF10BC7047EB
:100DF000401C490008BF20F0010010BC7047FEE70E
:100E000000F080BB02F02CBC074A904201D2074898
:100E100001E005481038064A8B0001EA020101D5BD
:100E2000C1607047816070471064024000600240FA
:100E30007D0F7D0F074A904201D2074801E0054827
:100E40001038064A8B0001EA020101D5C1607047E3
:100E50008160704710640240006002407D0F7D0F8A
:100E6000002904D0016841F0010101607047016868
:100E700021F00101016070472DE9F043016821F084
:100E8000010101600021016041608160C160016178
:100E9000212141613E493E4A10394FF03D089042C0
:100EA00003D1C1F80880BDE8F083394A4FF4746576
:100EB0001832904201D18D60F5E7354A4FF474162F
:100EC0003032904201D18E60EDE7314A4FF07467C5
:100ED0004832904201D18F60E5E72D4B2D4A6033B7
:100EE000984201D1CA60DEE7294C2B4B7834A042EE
:100EF00001D1CB60D7E7DFF898C0284C0CF1900CFB
:100F0000604501D1CC60CEE7DFF884904FF03D5CC6
:100F100009F1A809484502D1C1F80CC0C3E720492E
:100F2000DFF87C900839484502D1C1F80080BAE763
:100F3000DFF86C8008F11808404501D10D60B2E778
:100F4000174D3035A84201D10E60ACE7144D48353D
:100F5000A84201D10F60A6E7114D11496035091F64
:100F6000A84201D10A609EE70D4A7832904201D131
:100F70000B6098E70A4A9032904201D10C6092E7E8
:100F8000074AA83290428ED1C1F800C08BE700001A
:100F9000106002403D000020400F002000003D2076
:100FA00010640240014600200968C90700D00120F2
:100FB0007047000030B500240F4A904201D20F4A1A
:100FC00001E00D4A103A0E4B194205D01E2303EAE8
:100FD000D12503682B4002E0406900F080038800BF
:100FE00001D5506800E01068064A1040084201D060
:100FF00003B10124204630BD10640240006002406D
:101000003C0F3C0F7D0F7D0F0B0609D522B14369C4
:1010100043F08003436103E0436923F080034361AD
:10102000802905D001F01E011AB102680A4302604E
:10103000704702688A4302607047000030B5036859
:10104000124A1340CC680A682243D1E905452C4373
:101050002243CC6922430C6A22434C6A22438C6AA5
:1010600022434C6B22438C6B22431A430260426939
:1010700022F00703D1E90B2422431A4342610A6993
:1010800042604A6882608968C16030BD3F801CF060
:101090007047000070B586B00121084602F036FAAC
:1010A0000121102002F05CFA1E4E07220A21304670
:1010B00000F0ACF907220921304600F0A7F900241E
:1010C0008DF8164001208DF8170002258DF8145078
:1010D000410204918DF8155004A9304600F058F9EA
:1010E0008DF814506802049004A9304600F050F9BD
:1010F0004FF4E1300090ADF80440ADF80640ADF893
:101100000840ADF80C400C20ADF80A00064C6946CA
:10111000204602F0CDFC0121204602F0ABFC06B0D7
:1011200070BD0000000002400010014001B502E067
:101130000098401E009000980028F9D108BD0000DA
:101140008000A0F1C040002904D0016841F00101F5
:10115000016070470168024A114001607047000059
:10116000FEFF0F0070B501688900A1F1C0410B6856
:10117000344A1340D0E901242243D0E903452C43EB
:1011800022434469224384692243C4692243046A96
:101190002243446A2243846A2243C46A2243046B82
:1011A00022431A430A608168082907D1016889002F
:1011B000A1F1C0410A6842F040020A600168491C7E
:1011C0008A00A2F1C042116801F04044416BD1E9AC
:1011D000003543EA05138D688E892D0245EA0645E0
:1011E0002B430D8A43EA05530D7D896943EA056364
:1011F0000B4323431360C16AB1F5804F08D00068E8
:101200006FF070418000A0F1C040C0F8041170BDC3
:1012100001688900A1F1C041D1F804210A4B1A40AC
:10122000806BD0E9003443EA041384688589240282
:1012300044EA05448069234303431343C1F804315E
:1012400070BD00008000F7FF0000F0CF2DE9F047EF
:101250000F46002A70D00C2A6ED80668446885684C
:10126000C168D0F81090D0F814A0BBB301EB02080D
:10127000B8F1180F19D3A8F11808012C16D0032CB7
:1012800014D0052C12D0072C10D0082C0ED00A2C0C
:101290000CD0042C11D0062C0FD0092C0DD00B2C07
:1012A0000BD0022C10D00C2C1CD066E01F2D01D2CC
:1012B0006D1C62E00125641C5FE01E2D01D26D1CD7
:1012C0005BE00125641C58E01D2D08D01C2D03D1C6
:1012D000F0B200F0B4F910B16D1C4EE00AE0012547
:1012E00003244AE01F2D01D26D1C46E00125012494
:1012F000761C42E0914202D3A1EB02083DE0A1EB53
:10130000020808F11808022C17D0042C15D0062C5E
:1013100013D0082C11D0092C0FD00B2C0DD0052C7C
:1013200012D0072C10D00A2C0ED00C2C0CD0032C71
:1013300011D0012C1AD020E028E0012D01D96D1E1A
:101340001BE01F25641E18E0012D01D96D1E14E05D
:101350001E25641E11E0012D03D1F0B200F06FF9DB
:1013600008B16D1E09E01C25022406E0012D01D9FB
:101370006D1E02E01F250C24761E3E607C60BD6061
:10138000C7F80C80C7F81090C7F814A0BDE8F08724
:101390002DE9F041002201274FF0030C07FA02F576
:1013A0000B682B40AB422CD1066853000CFA03F4B7
:1013B000A64306600E79D0F800809E4046EA0806F3
:1013C00006600E79012E01D0022E12D18668A64346
:1013D00086604E79D0F808809E4046EA080686600E
:1013E0004668AE43466045688E799640B6B235434E
:1013F0004560C568A543C560CC799C40C3681C4363
:10140000C460521C102AC9D3BDE8F08110B54B0747
:10141000DB0E9A40C90800EB8100016A0F249C4052
:10142000A1430162016A1143016210BD418370470B
:101430000183704710B500F08FF8BDE8104000F050
:1014400001B8000010B590B00121480502F05EF827
:101450001F4C2046FFF710FD2046FFF7A3FD002894
:10146000FAD14FF0006001901A4802901A48039098
:10147000002004904FF400710591069049000791F7
:101480000890099089100A9109020B910C90032190
:101490000D910E900F9001A92046FFF7CFFD00F0AF
:1014A0001DF8012218212046FFF7AEFD012120463C
:1014B000FFF7D6FC2046FFF775FD0128FAD1054855
:1014C00001224021001F02F0E1FA10B010BD00001F
:1014D0008860024004440040A800002008B54FF492
:1014E000C06002F007F810208DF8000001208DF890
:1014F000010000218DF802108DF80300684601F00C
:10150000C5FF08BD2DE9F0410F4F104E394630465A
:10151000FFF750FD0E4D012430B16C703946304656
:10152000BDE8F041FFF786BC0A4F30463946FFF769
:1015300041FD002806D02C7039463046BDE8F04108
:10154000FFF778BCBDE8F0810044002088600240CD
:10155000100000200088002070B586B001210846E8
:1015600001F0D4FF0121480401F0ECFF1E4E0722D8
:1015700003213046FFF74AFF072202213046FFF7DA
:1015800045FF00248DF8164001208DF81700022534
:101590008DF81450042104918DF8155004A930469B
:1015A000FFF7F6FE8DF814500820049004A9304689
:1015B000FFF7EEFE4FF416500090ADF80440ADF882
:1015C0000640ADF80840ADF80C400C20ADF80A001C
:1015D000064C6946204602F06BFA0121204602F0D3
:1015E00049FA06B070BD000000000240004400400F
:1015F00070B505460C460F4E3078002803D102F036
:10160000C1F801203070220AE1B2A13AC2EB021007
:1016100000EB421001EB4000A1388102C81701EB3A
:101620005070C110044880220144284602F084F81A
:10163000002070BD2400002000604E00FEE700F591
:10164000FA60810701D0002070474FF4C871B0FBE9
:10165000F1F201FB120131B16421B0FBF1F201FBA7
:1016600012000028F0D00120704700000148C06837
:101670007047000028000020014AD0801181704787
:10168000280000200149C8607047000028000020A1
:101690000149C88070470000280000202DE9FC4166
:1016A0000121202001F032FF4024009401208DF818
:1016B000040000218DF806108DF807008DF8051044
:1016C0000B4F69463846FFF763FE80260096694651
:1016D0003846FFF75DFEA500009569463846FFF7DE
:1016E00057FE03481830048006800580BDE8FC8161
:1016F00000140240FEE77047054A4FF400710028CD
:1017000002D01046FFF794BE1046FFF78FBE0000D0
:101710000014024070B514461D462B46224600F0C8
:10172000A5FA044904FB05F00989BDE8704000F002
:101730001BB900002800002001B502E00098401EFF
:10174000009000980028F9D108BD00002DE9F04173
:10175000154620231A4600F089FA4FF430504FF016
:10176000D044208029461548FFF742FF0021134E40
:10177000134F250116F82100030206EB8100427881
:101780001A43130282781A43120290F803C04CEAFB
:10179000020C0020FA883B8925FA00F818EA0C0FA1
:1017A00001D0628000E06380401CC0B22028F3D3E7
:1017B000491CC9B22029DDD3BDE8F081A84600202C
:1017C000280000202DE9F043203A97B2194EF56821
:1017D000AA88EB8802FB03F44FEAE47C04EB5C7418
:1017E000C4F3C7042D6807FB045500F03FFA4FF41B
:1017F00030504FF0D04CACF80000002115E0002034
:10180000F3883289802715F8018027FA00F918EA51
:10181000090F02D0ACF8023001E0ACF80220401C05
:10182000C0B20828EFD3491CC9B2A142E7D3BDE832
:10183000F083000028000020F0B505460E46002485
:101840000F4F19E0F8687B8881882144994203D9B9
:101850000024C18829448DB2C088B98828448842B0
:1018600001D90024002529462046FFF7ABFF761C4E
:10187000F8688088204484B23278002AE2D1F0BD32
:10188000280000202DE9F04105460E4600241F4F98
:1018900037E07E2A1AD8F8687B88818821449942EB
:1018A00003D90024C18829448DB2C088B98828444E
:1018B000884201D90024002529462046FFF782FFEF
:1018C000F8688088204484B2761C1AE0798804F194
:1018D0002000884202D900242035ADB2B98805F134
:1018E0002000884201D9002400253088010201EB44
:1018F000102082B229462046FFF728FF2034A4B2E8
:10190000B61C3278002AC4D1BDE8F081280000203E
:1019100000B597B00121084601F006FE04210191AF
:101920000F200390880607900020029004900590F5
:1019300006900891099008210A9110210B910C90B2
:101940000E900F9010900902119112901390149024
:1019500001A81590169008A8FFF704FC01210420A7
:10196000FFF7EEFB17B000BD10B500224FF4305466
:101970004FF0D0431C8001E05980521C8242FBD3BF
:1019800010BD00002DE9FC5F0121782001F0BEFDB3
:101990004FF000098DF8069001248DF807400225CC
:1019A0008DF8045003208DF805004FF4804ACDF8DF
:1019B00000A069467648FFF7EBFC0C220E21744824
:1019C000FFF724FDE003009069467148FFF7E0FC53
:1019D0000C220F216E48FFF719FD009469466C48F0
:1019E000FFF7D6FC0C2200216948FFF70FFD009598
:1019F00069466748FFF7CCFC0C2201216448FFF7D9
:101A000005FD8020009069466248FFF7C1FC0C226A
:101A100007216048FFF7FAFC4FF4807BCDF800B057
:101A200069465C48FFF7B4FC0C2208215948FFF7CF
:101A3000EDFC6602009669465648FFF7A9FC0C22A9
:101A400009215448FFF7E2FCA70200976946514874
:101A5000FFF79EFC0C220A214E48FFF7D7FC4FF4FB
:101A60000068CDF8008069464A48FFF791FC0C22D7
:101A70000B214848FFF7CAFC2003009069464548FF
:101A8000FFF786FC0C2211464248FFF7BFFC6003BB
:101A9000009069463F48FFF77BFC0C220D213D4832
:101AA000FFF7B4FCCDF800A069463A48FFF770FC98
:101AB0000C220E213748FFF7A9FCE003009069468D
:101AC0003448FFF765FC0C220F213248FFF79EFCDB
:101AD000CDF800B069462E48FFF75AFC0C220821C9
:101AE0002B48FFF793FC009669462948FFF750FC06
:101AF0000C2209212648FFF789FC009769462448F3
:101B0000FFF746FC0C220A212148FFF77FFC10203A
:101B1000009069461E48FFF73BFC0C2204211C483C
:101B2000FFF774FC2020009069461948FFF730FC4D
:101B30000C2205211648FFF769FC0097164F6946ED
:101B40003846FFF725FC0C220A213846FFF75EFCD9
:101B50000094124F69463846FFF71AFC0C22002108
:101B60003846FFF753FC8DF804408DF806908DF849
:101B700007408DF80550CDF8008069463846FFF7DC
:101B800007FC009669463846FFF702FCBDE8FC9F5B
:101B9000000C0240001002400018024000140240F5
:101BA00010B5072841D8234A1070C4074FF4F071CC
:101BB0004FF448733AD0538091804FF458534FF00C
:101BC000D0410B80400148804FF42850088000200D
:101BD000488042F6012008800020488042F602201A
:101BE00008805088401EC0F307234B8042F6032331
:101BF0000B80C0B248804FF42C50088000204880F1
:101C000042F6013008800020488042F60230088009
:101C10009088401EC0F307224A8042F603320A80B1
:101C2000C0B248804FF43050088010BD518093807E
:101C3000C3E700002800002010B5FFF7A3FEFFF760
:101C400067FE01F00BFC00F040F8074C2078FFF72E
:101C5000A7FF0021A38862880846FFF75BFDBDE867
:101C600010400120FFF748BD2800002030B54FF498
:101C700028554FF0D0442580050A658042F601259D
:101C80002580C5B2658042F6022525801044401E9D
:101C9000020A62806A1C2280C0B260804FF42C501D
:101CA0002080080A608042F601302080C8B260803F
:101CB00042F602302080C818401E010A618042F6B8
:101CC00003312180C0B2608030BD2DE9F0414FF07A
:101CD000D0444FF470402080552060804FF20100C6
:101CE00001462180AA216180411C421C228052228F
:101CF0006280821C831C238008236380C31CC51C54
:101D00002580012565804FF4304525800D256580AF
:101D10004BF2010525800D2565804BF202052580DB
:101D20000D2565804FF431452E4626800D266680B0
:101D30006E1C6F1C27800D276780AF1C27800D2726
:101D400067804FF432472780002767804BF20127D6
:101D50002780002767804BF20227278000276780B3
:101D60004FF43647BC46A4F800C04FF0440CA4F82A
:101D700002C04BF2016CA4F800C04FF0440CA4F870
:101D800002C04BF2026CA4F800C04FF0440CA4F85F
:101D900002C04FF4374CA4F800C04FF0340CA4F844
:101DA00002C04BF2017CA4F800C04FF0340CA4F840
:101DB00002C04BF2027CA4F800C04FF0340CA4F82F
:101DC00002C04FF4384CA4F800C04FF0340CA4F813
:101DD00002C04BF6010CA4F800C04FF0340CA4F87C
:101DE00002C04BF6020CA4F800C04FF0340CA4F86B
:101DF00002C04FF43F4CA4F800C04FF0010CA4F80F
:101E000002C04FF4334CA4F800C04FF00F0CA4F8FC
:101E100002C04BF2013CA4F800C04FF00F0CA4F834
:101E200002C04BF2023CA4F800C04FF00F0CA4F823
:101E300002C04FF4394CA4F800C04FF0340CA4F8A1
:101E400002C04BF6011CA4F800C04FF0340CA4F8FB
:101E500002C04BF6021CA4F800C04FF0340CA4F8EA
:101E600002C04FF4354CE046A4F800804FF008085B
:101E7000A4F802804BF20158A4F800804FF0080843
:101E8000A4F802804BF20258A4F800804FF0080832
:101E9000A4F802804FF44248A4F800804FF00308F1
:101EA000A4F802804FF43A48A4F800804FF03408B8
:101EB000A4F802804BF60128A4F800804FF0340803
:101EC000A4F802804BF60228A4F800804FF03408F2
:101ED000A4F802804FF43C48A4F800804FF00008BA
:101EE000A4F802804BF60148A4F800804FF078086F
:101EF000A4F802804BF60248A4F800804FF00008D6
:101F0000A4F802804FF43D48A4F800804FF0000888
:101F1000A4F802804BF60158A4F800804FF078082E
:101F2000A4F802804BF60258A4F800804FF0000895
:101F3000A4F802804FF43E48A4F800804FF0000857
:101F4000A4F802804BF60168A4F800804FF0640802
:101F5000A4F802804FF45148A4F800804FF0000824
:101F6000A4F802804DF20118A4F800804FF0330865
:101F7000A4F802804DF20218A4F800804FF0000887
:101F8000A4F802804DF20318A4F800804FF0340842
:101F9000A4F802804DF20418A4F800804FF0000865
:101FA000A4F802804DF20518A4F800804FF03A081A
:101FB000A4F802804DF20618A4F800804FF0000843
:101FC000A4F802804DF20718A4F800804FF04A08E8
:101FD000A4F802804DF20818A4F800804FF0000821
:101FE000A4F802804DF20918A4F800804FF05C08B4
:101FF000A4F802804DF20A18A4F800804FF00008FF
:10200000A4F802804DF20B18A4F800804FF081086C
:10201000A4F802804DF20C18A4F800804FF00008DC
:10202000A4F802804DF20D18A4F800804FF0A60825
:10203000A4F802804DF20E18A4F800804FF00008BA
:10204000A4F802804DF20F18A4F800804FF0E508C4
:10205000A4F802804DF21018A4F800804FF0010897
:10206000A4F802804DF21118A4F800804FF0130874
:10207000A4F802804DF21218A4F800804FF0010875
:10208000A4F802804DF21318A4F800804FF0540811
:10209000A4F802804DF21418A4F800804FF0010853
:1020A000A4F802804DF21518A4F800804FF08208C1
:1020B000A4F802804DF21618A4F800804FF0010831
:1020C000A4F802804DF21718A4F800804FF0CA0857
:1020D000A4F802804DF21818A4F800804FF002080E
:1020E000A4F802804DF21918A4F800804FF00008FF
:1020F000A4F802804DF21A18A4F800804FF00208EC
:10210000A4F802804DF21B18A4F800804FF00108DB
:10211000A4F802804DF21C18A4F800804FF00208C9
:10212000A4F802804DF21D18A4F800804FF0340886
:10213000A4F802804DF21E18A4F800804FF00208A7
:10214000A4F802804DF21F18A4F800804FF0670831
:10215000A4F802804DF22018A4F800804FF0020885
:10216000A4F802804DF22118A4F800804FF08408F2
:10217000A4F802804DF22218A4F800804FF0020863
:10218000A4F802804DF22318A4F800804FF0A408B0
:10219000A4F802804DF22418A4F800804FF0020841
:1021A000A4F802804DF22518A4F800804FF0B7087B
:1021B000A4F802804DF22618A4F800804FF002081F
:1021C000A4F802804DF22718A4F800804FF0CF0841
:1021D000A4F802804DF22818A4F800804FF00208FD
:1021E000A4F802804DF22918A4F800804FF0DE0810
:1021F000A4F802804DF22A18A4F800804FF00208DB
:10220000A4F802804DF22B18A4F800804FF0F208D9
:10221000A4F802804DF22C18A4F800804FF00208B8
:10222000A4F802804DF22D18A4F800804FF0FE08AB
:10223000A4F802804DF22E18A4F800804FF0030895
:10224000A4F802804DF22F18A4F800804FF0100877
:10225000A4F802804DF23018A4F800804FF0030873
:10226000A4F802804DF23118A4F800804FF0330832
:10227000A4F802804DF23218A4F800804FF0030851
:10228000A4F802804DF23318A4F800804FF06D08D6
:10229000A4F802804FF45248A4F800804FF00008E0
:1022A000A4F802804DF20128A4F800804FF0330812
:1022B000A4F802804DF20228A4F800804FF0000834
:1022C000A4F802804DF20328A4F800804FF03408EF
:1022D000A4F802804DF20428A4F800804FF0000812
:1022E000A4F802804DF20528A4F800804FF03A08C7
:1022F000A4F802804DF20628A4F800804FF00008F0
:10230000A4F802804DF20728A4F800804FF04A0894
:10231000A4F802804DF20828A4F800804FF00008CD
:10232000A4F802804DF20928A4F800804FF05C0860
:10233000A4F802804DF20A28A4F800804FF00008AB
:10234000A4F802804DF20B28A4F800804FF0810819
:10235000A4F802804DF20C28A4F800804FF0000889
:10236000A4F802804DF20D28A4F800804FF0A608D2
:10237000A4F802804DF20E28A4F800804FF0000867
:10238000A4F802804DF20F28A4F800804FF0E50871
:10239000A4F802804DF21028A4F800804FF0010844
:1023A000A4F802804DF21128A4F800804FF0130821
:1023B000A4F802804DF21228A4F800804FF0010822
:1023C000A4F802804DF21328A4F800804FF05408BE
:1023D000A4F802804DF21428A4F800804FF0010800
:1023E000A4F802804DF21528A4F800804FF082086E
:1023F000A4F802804DF21628A4F800804FF00108DE
:10240000A4F802804DF21728A4F800804FF0CA0803
:10241000A4F802804DF21828A4F800804FF00208BA
:10242000A4F802804DF21928A4F800804FF00008AB
:10243000A4F802804DF21A28A4F800804FF0020898
:10244000A4F802804DF21B28A4F800804FF0010888
:10245000A4F802804DF21C28A4F800804FF0020876
:10246000A4F802804DF21D28A4F800804FF0340833
:10247000A4F802804DF21E28A4F800804FF0020854
:10248000A4F802804DF21F28A4F800804FF06708DE
:10249000A4F802804DF22028A4F800804FF0020832
:1024A000A4F802804DF22128A4F800804FF084089F
:1024B000A4F802804DF22228A4F800804FF0020810
:1024C000A4F802804DF22328A4F800804FF0A4085D
:1024D000A4F802804DF22428A4F800804FF00208EE
:1024E000A4F802804DF22528A4F800804FF0B70828
:1024F000A4F802804DF22628A4F800804FF00208CC
:10250000A4F802804DF22728A4F800804FF0CF08ED
:10251000A4F802804DF22828A4F800804FF00208A9
:10252000A4F802804DF22928A4F800804FF0DE08BC
:10253000A4F802804DF22A28A4F800804FF0020887
:10254000A4F802804DF22B28A4F800804FF0F20886
:10255000A4F802804DF22C28A4F800804FF0020865
:10256000A4F802804DF22D28A4F800804FF0FE0858
:10257000A4F802804DF22E28A4F800804FF0030842
:10258000A4F802804DF22F28A4F800804FF0100824
:10259000A4F802804DF23028A4F800804FF0030820
:1025A000A4F802804DF23128A4F800804FF03308DF
:1025B000A4F802804DF23228A4F800804FF00308FE
:1025C000A4F802804DF23328A4F800804FF06D0883
:1025D000A4F802804FF45348A4F800804FF000089C
:1025E000A4F802804DF20138A4F800804FF03308BF
:1025F000A4F802804DF20238A4F800804FF00008E1
:10260000A4F802804DF20338A4F800804FF034089B
:10261000A4F802804DF20438A4F800804FF00008BE
:10262000A4F802804DF20538A4F800804FF03A0873
:10263000A4F802804DF20638A4F800804FF000089C
:10264000A4F802804DF20738A4F800804FF04A0841
:10265000A4F802804DF20838A4F800804FF000087A
:10266000A4F802804DF20938A4F800804FF05C080D
:10267000A4F802804DF20A38A4F800804FF0000858
:10268000A4F802804DF20B38A4F800804FF08108C6
:10269000A4F802804DF20C38A4F800804FF0000836
:1026A000A4F802804DF20D38A4F800804FF0A6087F
:1026B000A4F802804DF20E38A4F800804FF0000814
:1026C000A4F802804DF20F38A4F800804FF0E5081E
:1026D000A4F802804DF21038A4F800804FF00108F1
:1026E000A4F802804DF21138A4F800804FF01308CE
:1026F000A4F802804DF21238A4F800804FF00108CF
:10270000A4F802804DF21338A4F800804FF054086A
:10271000A4F802804DF21438A4F800804FF00108AC
:10272000A4F802804DF21538A4F800804FF082081A
:10273000A4F802804DF21638A4F800804FF001088A
:10274000A4F802804DF21738A4F800804FF0CA08B0
:10275000A4F802804DF21838A4F800804FF0020867
:10276000A4F802804DF21938A4F800804FF0000858
:10277000A4F802804DF21A38A4F800804FF0020845
:10278000A4F802804DF21B38A4F800804FF0010835
:10279000A4F802804DF21C38A4F800804FF0020823
:1027A000A4F802804DF21D38A4F800804FF03408E0
:1027B000A4F802804DF21E38A4F800804FF0020801
:1027C000A4F802804DF21F38A4F800804FF067088B
:1027D000A4F802804DF22038A4F800804FF00208DF
:1027E000A4F802804DF22138A4F800804FF084084C
:1027F000A4F802804DF22238A4F800804FF00208BD
:10280000A4F802804DF22338A4F800804FF0A40809
:10281000A4F802804DF22438A4F800804FF002089A
:10282000A4F802804DF22538A4F800804FF0B708D4
:10283000A4F802804DF22638A4F800804FF0020878
:10284000A4F802804DF22738A4F800804FF0CF089A
:10285000A4F802804DF22838A4F800804FF0020856
:10286000A4F802804DF22938A4F800804FF0DE0869
:10287000A4F802804DF22A38A4F800804FF0020834
:10288000A4F802804DF22B38A4F800804FF0F20833
:10289000A4F802804DF22C38A4F800804FF0020812
:1028A000A4F802804DF22D38A4F800804FF0FE0805
:1028B000A4F802804DF22E38A4F800804FF00308EF
:1028C000A4F802804DF22F38A4F800804FF01008D1
:1028D000A4F802804DF23038A4F800804FF00308CD
:1028E000A4F802804DF23138A4F800804FF033088C
:1028F000A4F802804DF23238A4F800804FF00308AB
:10290000A4F802804DF23338A4F800804FF06D082F
:10291000A4F802804FF45448A4F800804FF0000857
:10292000A4F802804DF20148A4F800804FF033086B
:10293000A4F802804DF20248A4F800804FF000088D
:10294000A4F802804DF20348A4F800804FF0340848
:10295000A4F802804DF20448A4F800804FF000086B
:10296000A4F802804DF20548A4F800804FF03A0820
:10297000A4F802804DF20648A4F800804FF0000849
:10298000A4F802804DF20748A4F800804FF04A08EE
:10299000A4F802804DF20848A4F800804FF0000827
:1029A000A4F802804DF20948A4F800804FF05C08BA
:1029B000A4F802804DF20A48A4F800804FF0000805
:1029C000A4F802804DF20B48A4F800804FF0810873
:1029D000A4F802804DF20C48A4F800804FF00008E3
:1029E000A4F802804DF20D48A4F800804FF0A6082C
:1029F000A4F802804DF20E48A4F800804FF00008C1
:102A0000A4F802804DF20F48A4F800804FF0E508CA
:102A1000A4F802804DF21048A4F800804FF001089D
:102A2000A4F802804DF21148A4F800804FF013087A
:102A3000A4F802804DF21248A4F800804FF001087B
:102A4000A4F802804DF21348A4F800804FF0540817
:102A5000A4F802804DF21448A4F800804FF0010859
:102A6000A4F802804DF21548A4F800804FF08208C7
:102A7000A4F802804DF21648A4F800804FF0010837
:102A8000A4F802804DF21748A4F800804FF0CA085D
:102A9000A4F802804DF21848A4F800804FF0020814
:102AA000A4F802804DF21948A4F800804FF0000805
:102AB000A4F802804DF21A48A4F800804FF00208F2
:102AC000A4F802804DF21B48A4F800804FF00108E2
:102AD000A4F802804DF21C48A4F800804FF00208D0
:102AE000A4F802804DF21D48A4F800804FF034088D
:102AF000A4F802804DF21E48A4F800804FF00208AE
:102B0000A4F802804DF21F48A4F800804FF0670837
:102B1000A4F802804DF22048A4F800804FF002088B
:102B2000A4F802804DF22148A4F800804FF08408F8
:102B3000A4F802804DF22248A4F800804FF0020869
:102B4000A4F802804DF22348A4F800804FF0A408B6
:102B5000A4F802804DF22448A4F800804FF0020847
:102B6000A4F802804DF22548A4F800804FF0B70881
:102B7000A4F802804DF22648A4F800804FF0020825
:102B8000A4F802804DF22748A4F800804FF0CF0847
:102B9000A4F802804DF22848A4F800804FF0020803
:102BA000A4F802804DF22948A4F800804FF0DE0816
:102BB000A4F802804DF22A48A4F800804FF00208E1
:102BC000A4F802804DF22B48A4F800804FF0F208E0
:102BD000A4F802804DF22C48A4F800804FF00208BF
:102BE000A4F802804DF22D48A4F800804FF0FE08B2
:102BF000A4F802804DF22E48A4F800804FF003089C
:102C0000A4F802804DF22F48A4F800804FF010087D
:102C1000A4F802804DF23048A4F800804FF0030879
:102C2000A4F802804DF23148A4F800804FF0330838
:102C3000A4F802804DF23248A4F800804FF0030857
:102C4000A4F802804DF23348A4F800804FF06D08DC
:102C5000A4F802804FF45548A4F800804FF0000813
:102C6000A4F802804DF20158A4F800804FF0330818
:102C7000A4F802804DF20258A4F800804FF000083A
:102C8000A4F802804DF20358A4F800804FF03408F5
:102C9000A4F802804DF20458A4F800804FF0000818
:102CA000A4F802804DF20558A4F800804FF03A08CD
:102CB000A4F802804DF20658A4F800804FF00008F6
:102CC000A4F802804DF20758A4F800804FF04A089B
:102CD000A4F802804DF20858A4F800804FF00008D4
:102CE000A4F802804DF20958A4F800804FF05C0867
:102CF000A4F802804DF20A58A4F800804FF00008B2
:102D0000A4F802804DF20B58A4F800804FF081081F
:102D1000A4F802804DF20C58A4F800804FF000088F
:102D2000A4F802804DF20D58A4F800804FF0A608D8
:102D3000A4F802804DF20E58A4F800804FF000086D
:102D4000A4F802804DF20F58A4F800804FF0E50877
:102D5000A4F802804DF21058A4F800804FF001084A
:102D6000A4F802804DF21158A4F800804FF0130827
:102D7000A4F802804DF21258A4F800804FF0010828
:102D8000A4F802804DF21358A4F800804FF05408C4
:102D9000A4F802804DF21458A4F800804FF0010806
:102DA000A4F802804DF21558A4F800804FF0820874
:102DB000A4F802804DF21658A4F800804FF00108E4
:102DC000A4F802804DF21758A4F800804FF0CA080A
:102DD000A4F802804DF21858A4F800804FF00208C1
:102DE000A4F802804DF21958A4F800804FF00008B2
:102DF000A4F802804DF21A58A4F800804FF002089F
:102E0000A4F802804DF21B58A4F800804FF001088E
:102E1000A4F802804DF21C58A4F800804FF002087C
:102E2000A4F802804DF21D58A4F800804FF0340839
:102E3000A4F802804DF21E58A4F800804FF002085A
:102E4000A4F802804DF21F58A4F800804FF06708E4
:102E5000A4F802804DF22058A4F800804FF0020838
:102E6000A4F802804DF22158A4F800804FF08408A5
:102E7000A4F802804DF22258A4F800804FF0020816
:102E8000A4F802804DF22358A4F800804FF0A40863
:102E9000A4F802804DF22458A4F800804FF00208F4
:102EA000A4F802804DF22558A4F800804FF0B7082E
:102EB000A4F802804DF22658A4F800804FF00208D2
:102EC000A4F802804DF22758A4F800804FF0CF08F4
:102ED000A4F802804DF22858A4F800804FF00208B0
:102EE000A4F802804DF22958A4F800804FF0DE08C3
:102EF000A4F802804DF22A58A4F800804FF002088E
:102F0000A4F802804DF22B58A4F800804FF0F2088C
:102F1000A4F802804DF22C58A4F800804FF002086B
:102F2000A4F802804DF22D58A4F800804FF0FE085E
:102F3000A4F802804DF22E58A4F800804FF0030848
:102F4000A4F802804DF22F58A4F800804FF010082A
:102F5000A4F802804DF23058A4F800804FF0030826
:102F6000A4F802804DF23158A4F800804FF03308E5
:102F7000A4F802804DF23258A4F800804FF0030804
:102F8000A4F802804DF23358A4F800804FF06D0889
:102F9000A4F802804FF45648A4F800804FF00008CF
:102FA000A4F802804DF20168A4F800804FF03308C5
:102FB000A4F802804DF20268A4F800804FF00008E7
:102FC000A4F802804DF20368A4F800804FF03408A2
:102FD000A4F802804DF20468A4F800804FF00008C5
:102FE000A4F802804DF20568A4F800804FF03A087A
:102FF000A4F802804DF20668A4F800804FF00008A3
:10300000A4F802804DF20768A4F800804FF04A0847
:10301000A4F802804DF20868A4F800804FF0000880
:10302000A4F802804DF20968A4F800804FF05C0813
:10303000A4F802804DF20A68A4F800804FF000085E
:10304000A4F802804DF20B68A4F800804FF08108CC
:10305000A4F802804DF20C68A4F800804FF000083C
:10306000A4F802804DF20D68A4F800804FF0A60885
:10307000A4F802804DF20E68A4F800804FF000081A
:10308000A4F802804DF20F68A4F800804FF0E50824
:10309000A4F802804DF21068A4F800804FF00108F7
:1030A000A4F802804DF21168A4F800804FF01308D4
:1030B000A4F802804DF21268A4F800804FF00108D5
:1030C000A4F802804DF21368A4F800804FF0540871
:1030D000A4F802804DF21468A4F800804FF00108B3
:1030E000A4F802804DF21568A4F800804FF0820821
:1030F000A4F802804DF21668A4F800804FF0010891
:10310000A4F802804DF21768A4F800804FF0CA08B6
:10311000A4F802804DF21868A4F800804FF002086D
:10312000A4F802804DF21968A4F800804FF000085E
:10313000A4F802804DF21A68A4F800804FF002084B
:10314000A4F802804DF21B68A4F800804FF001083B
:10315000A4F802804DF21C68A4F800804FF0020829
:10316000A4F802804DF21D68A4F800804FF03408E6
:10317000A4F802804DF21E68A4F800804FF0020807
:10318000A4F802804DF21F68A4F800804FF0670891
:10319000A4F802804DF22068A4F800804FF00208E5
:1031A000A4F802804DF22168A4F800804FF0840852
:1031B000A4F802804DF22268A4F800804FF00208C3
:1031C000A4F802804DF22368A4F800804FF0A40810
:1031D000A4F802804DF22468A4F800804FF00208A1
:1031E000A4F802804DF22568A4F800804FF0B708DB
:1031F000A4F802804DF22668A4F800804FF002087F
:10320000A4F802804DF22768A4F800804FF0CF08A0
:10321000A4F802804DF22868A4F800804FF002085C
:10322000A4F802804DF22968A4F800804FF0DE086F
:10323000A4F802804DF22A68A4F800804FF002083A
:10324000A4F802804DF22B68A4F800804FF0F20839
:10325000A4F802804DF22C68A4F800804FF0020818
:10326000A4F802804DF22D68A4F800804FF0FE080B
:10327000A4F802804DF22E68A4F800804FF00308F5
:10328000A4F802804DF22F68A4F800804FF01008D7
:10329000A4F802804DF23068A4F800804FF00308D3
:1032A000A4F802804DF23168A4F800804FF0330892
:1032B000A4F802804DF23268A4F800804FF00308B1
:1032C000A4F802804DF23368A4F800804FF06D0836
:1032D000A4F802804FF47048A4F800804FF055081D
:1032E000A4F802802080AA20608021805220608083
:1032F000228008206080238000206080A4F800C025
:10330000502060802580CC20608026800020608056
:103310002780052060804FF4374020807720608030
:103320004BF201702080772060804FF4384020807D
:10333000012060804BF601002080032060804BF666
:1033400002002080032060804BF6030020800320D1
:1033500060804FF43C402080022060804BF60140AA
:103360002080002060804BF602402080002060809A
:103370004FF43D402080012060804BF601502080BA
:10338000842060804BF6025020801C2060804BF629
:10339000035020801C2060804BF6045020800020C9
:1033A00060804FF449402080D02060804CF60110AE
:1033B0002080022060804CF6021020805020608027
:1033C0004CF603102080502060804CF604102080C2
:1033D000502060804FF458502080002060804FF4CF
:1033E00054502080002060804FF47F402080AA202D
:1033F00060804FF601702080552060804FF602708B
:103400002080252060804FF603702080012060809E
:103410004FF47C402080162060804FF601402080D1
:10342000A22060804FF602402080262060804FF46A
:1034300068502080062060804FF46850208055201E
:1034400060804FF4885020806FF07F40FDF76EFE63
:103450004FF424502080BDE8F081000070B50A4D83
:103460004FF4006421462846FDF7E0FF40F6FF26B2
:103470003046FEF761F921462846FDF7D9FF304670
:10348000BDE87040FEF758B90014024030B50F2374
:10349000C27801250178002A1FD0154A126802F46B
:1034A000E062C2F5E062C2F30722C2F10404D34035
:1034B0004278A24084781C401443220101F1E021AB
:1034C00081F80024007800F01F018D404009800041
:1034D00000F1E020C0F8005130BD01F01F00854030
:1034E0004809800000F1E020C0F8805130BD0000A4
:1034F0000CED00E0024908430249086070470000F3
:103500000000FA050CED00E070470000054A0029B4
:1035100003D0116801431160704711688143116045
:103520007047000030380240054A002903D0116876
:1035300001431160704711688143116070470000BA
:1035400038380240054A002903D011680143116050
:103550007047116881431160704700004038024095
:10356000054A002903D011680143116070471168B2
:1035700081431160704700004438024070B5244B0D
:10358000196801F00C01234C00291ED0224E042999
:103590001DD008291DD00460196801F0F001090947
:1035A0001E4A545C0168E14041601C6804F4E05428
:1035B000A40A145D21FA04F484601B6803F46043D8
:1035C0005B0BD25CD140C16070BD0460E4E7066073
:1035D000E2E70F4A121F1168C1F38055116801F02C
:1035E0003F0135B1B6FBF1F11468C4F388146143AF
:1035F00005E0B4FBF1F11468C4F388146143126868
:10360000C2F30142521C5200B1FBF2F10160C3E768
:10361000083802400024F40040787D0100000020BA
:103620000149086070470000382C01400146002025
:10363000024A12680A4200D001207047342C01402F
:1036400000F022B8054A002903D011680143116037
:103650007047116881431160704700003C2C0140A5
:103660000748006810F0C05F08D006490120486193
:1036700003484FF0C2515830FDF7C6BB70470000F9
:10368000006402403C00002070B54FF4807528466D
:10369000FFF7CCFF214C38B1002020702846FFF7FF
:1036A000BFFF0120206132E00220FFF7BFFF28B1F9
:1036B0000220FFF7B5FF0220207028E00820FFF766
:1036C000B5FF28B10820FFF7ABFF042020701EE0F3
:1036D0002020FFF7ABFF28B12020FFF7A1FF062035
:1036E000207014E01020FFF7A1FF28B11020FFF791
:1036F00097FF052020700AE04FF400752846FFF779
:1037000095FF20B12846FFF78BFF0720207000218E
:103710004CF23A30FFF796FF207870BD3C00002055
:10372000002904D0018841F04001018070470188E0
:1037300021F04001018070472DE9F04104460F4619
:1037400015460F4840260680032000F085F8C7F391
:10375000074000F081F8C7F3072000F07DF8F8B2C9
:1037600000F07AF804E0FF2000F076F804F8010B8E
:103770006D1EADB2F7D20248801E0680BDE8F08112
:103780001A180240F0B587B001214220FFF7BEFEB3
:1037900001210803FFF7E4FE2C4E052203213046E9
:1037A000FDF734FE052204213046FDF72FFE0522E9
:1037B00011463046FDF72AFE0820009002258DF8BC
:1037C00005508DF8045000248DF806408DF8074010
:1037D00069463046FDF7DCFD102100916946304610
:1037E000FDF7D6FD2020009069463046FDF7D0FD5C
:1037F0004026009601278DF8047069461448FDF7AD
:10380000C7FD134818300680ADF808404FF48270A9
:10381000ADF80A00ADF80C40ADF80E50ADF81070E0
:103820002802ADF81200ADF81440ADF8164007209C
:10383000ADF81800074C02A9204600F050F801210D
:103840002046FFF76DFF07B0F0BD00000004024006
:1038500000180240003001402DE9F0410746184CA5
:103860004FF480552560174E09E02068411E216005
:1038700005D2002000F050F8C0B2BDE8F08102216E
:10388000304600F021F80028EFD03946304600F0ED
:1038900024F8256008E021684A1E226004D2012035
:1038A00000F03AF8C0B2E8E70121304600F00CF829
:1038B0000028F0D0304600F00EF8C0B2DDE700007E
:1038C00038000020003001400246002012890A42E0
:1038D00000D001207047808970478181704730B5E2
:1038E000028802F441530A884C88CD8822438C8890
:1038F0002C4322430C8922434C8922438C89224346
:10390000CC8922431A430280828B22F40062828394
:10391000098A018230BD000010B5014602A000F006
:103920002BF9002010BD00003C3C2D464C41534873
:103930002D4552524F522D3E3E2053504920B5C87E
:10394000B4FDB3ACCAB1216572726F72436F646526
:10395000203D2025640A0000704700000CB50022BD
:10396000019200922749086840F4803008604FF4C3
:10397000A043086800F4003000900198401C0190BA
:10398000009810B901989842F3D10868800302D5D5
:103990000120009000E000920098012831D11948E0
:1039A0004030026842F0805202601748026842F4D8
:1039B000404202601348083002680260026842F424
:1039C00000420260026842F4A0520260021F0F4BE4
:1039D00013600A6842F080720A600A689201FCD59E
:1039E0000B4A40F205711160016821F0030101608A
:1039F000016841F0020101600168C1F381010229FF
:103A0000FAD10CBD00380240007000401954400744
:103A1000003C02407047000010B51248016841F4B4
:103A2000700101601048016841F0010101600E4A17
:103A300000210832116002680C4B1A400260031D1D
:103A40000B4A1A60026822F48022026006480C3099
:103A50000160FFF783FF03494FF000608039086081
:103A600010BD000088ED00E000380240FFFFF6FEC8
:103A700010300024002904D0818941F40051818153
:103A80007047818921F4005181817047002A03D059
:103A9000828A0A4382827047828A8A43828270477E
:103AA0000246002012880A4200D001207047000020
:103AB0007FB504460D46208A20F44051E88808432B
:103AC0002082A08941F20C618843A9882A89114388
:103AD0006A8902431143A181A08A20F44071A88918
:103AE0000843A0826846FFF749FD1E48844202D081
:103AF0001D48844201D1039800E00298A18909047D
:103B000008D500EBC00101EB001029684900B0FBAB
:103B1000F1F007E000EBC00101EB0010296889001B
:103B2000B0FBF1F06422B0FBF2F109010B096FF078
:103B300018056B4300EB8300A3891D044FF032038B
:103B400007D503EBC000B0FBF2F000F0070008431C
:103B500006E003EB0010B0FBF2F000F00F000843AA
:103B600020817FBD0010014000140140C1F3080115
:103B700081807047FEE700000FB4054B10B503A924
:103B8000044A029800F062F910BC5DF814FB0000D2
:103B9000DD450008980000200FB4084B10B504A9BB
:103BA00002AA039800F052F9044602A9002000F08E
:103BB000EFFC204610BC5DF814FB000091450008A6
:103BC0007CB5491E1C461546CDE90001044B6A46EA
:103BD0002146284600F03AF9009A002111707CBD78
:103BE0007B45000800487047A4000020000000004A
:103BF00000B583B09FED060B0A4601468DED000B24
:103C00006846FCF718FE9DED000B03B000BD0000F8
:103C1000000000000000000002E008C8121F08C1F8
:103C2000002AFAD170477047002001E001C1121F3D
:103C3000002AFBD1704700002DE9FF5FDDE902207B
:103C4000010DDDF838B0024318D044F61050A1F24F
:103C5000FF3141430D140F98012820D0A5EB0B0034
:103C6000401C5FEA000A4FF00004474EDFF81C9149
:103C7000A046504616D5CAF1000728E00F98012447
:103C800043A2012808D0002100980F9BC0E9002121
:103C9000C0E90243BDE8FF9F6FEA0B01F4E7CBF1F7
:103CA0000000DEE7074612E0F80707D02246334659
:103CB00040464946FCF7E4FB8046894622463346A7
:103CC00010461946FCF7DCFB04460E467F10002F19
:103CD000EAD1DDE90201BAF1000F42464B4602DAB1
:103CE000FCF7CEFB01E0FCF73DFC04460E4600224B
:103CF000284BFCF7D7FC03D84FF0FF30014607E014
:103D00000022254B20463146FCF713FBFCF723FE2F
:103D1000102409E0002C0ADB0A220023FCF750FAE9
:103D2000019B30321A55641E50EA0102F2D1641C24
:103D3000019AC4F1110314440F9A012A03D00122FD
:103D400008430DD10AE0084304D000204FF0110BC6
:103D50000F9080E7A3EB0B056D1E0DE05B4504DDC6
:103D60004FF0000205F1010504E003DA4FF0000214
:103D7000A5F10105002AECD000980F99C0E90231A5
:103D8000C0E9004586E70000000024400000F03F45
:103D9000300000000000F0430000E03F30380A2807
:103DA00001D201207047002070470000FEB50024BA
:103DB00002F114052E1F331F06290BD0082914D039
:103DC000092912D00A2910D010A001F089FACCB12B
:103DD0000020FEBDCDE9006515A202F0DFFB03283F
:103DE00001D00024F3E70124F1E71832CDE90065A2
:103DF000029212A202F0D2FB042801D00024E6E7CE
:103E00000124E4E74FF0FF30FEBD00005061727303
:103E100065206F662074696D65206572726F72200F
:103E200028666F726D6174206572726F722921004D
:103E30002532642532642532640000002532642571
:103E400032642532642E2564000000002DE9FF4F06
:103E500095B09B468946064600250FE2252877D176
:103E600000242746F84A0121059400E0044316F88F
:103E7000013F203B01FA03F01042F7D130782A28A5
:103E800011D06FF02F033078A0F13002092A16D834
:103E9000059A44F0020402EB820203EB4202104452
:103EA000761C0590EFE759F8042B0592002A03DAF7
:103EB000504244F40054059044F00204761C3078DB
:103EC0002E2816D116F8010F44F004042A280DD02C
:103ED0006FF02F023078A0F13003092B09D807EBDF
:103EE000870302EB4303C718761CF3E759F8047BFA
:103EF000761C30786C280FD006DC4C2817D0682848
:103F00000DD06A2814D104E0742810D07A280FD17B
:103F10000DE044F400140AE044F4801401E044F499
:103F200040147278824202D104F58014761C761C0B
:103F3000307866280BD013DC582877D009DC0028AD
:103F400075D04528F6D04628F4D047281AD19DE1EF
:103F500018E0632835D0642879D0652812D195E11E
:103F6000702873D008DC6728F1D069286FD06E28DC
:103F70000DD06F2806D1B5E073282CD0752875D0E8
:103F8000782874D05A46179990476D1C75E1C4F390
:103F90000250022809D003280DD0D9F800100428B7
:103FA0000DD00D6009F1040967E1D9F80010EA1796
:103FB000C1E90052F6E7D9F800100D80F2E70D7064
:103FC000F0E719F8041B8DF8001000208DF80100AF
:103FD000EA46012003E059F804AB4FF0FF306107D7
:103FE0004FF0000102D40DE008F101018846B9420A
:103FF0000FDA8045F8DB1AF808100029F4D108E040
:1040000008F1010188468142FADB1AF808100029FC
:10401000F6D105985B46A0EB080721463846179A6B
:1040200000F094FA284400EB080507E04DE029E190
:104030000DE01AF8010B5A4617999047B8F101089C
:10404000F7D25B4621463846179A13E142E00A222E
:104050000092C4F302524FF0000A022A08D059F825
:1040600004CB032A4FEAEC710AD00DE029E02AE0E4
:1040700009F1070121F00702F2E802C1914609E0C7
:104080000FFA8CFC4FEAEC71042A03D14FFA8CFC36
:104090004FEAEC71002907DA0A460021DCF1000C36
:1040A00061EB02012D2202E0220504D52B228DF8BE
:1040B0000420012203E0E20701D02022F7E7904626
:1040C00059E00A2102E010220DE010214FF0000A11
:1040D00000910BE010224FF0000A44F0040408277E
:1040E000009203E008224FF0000A0092C4F302524B
:1040F000022A05D059F804CB0021032A08D009E090
:1041000009F1070121F00702F2E802C1914605E03A
:104110001FFA8CFC042A01D10CF0FF0C4FF00008B0
:10412000220728D5702806D0009B83F0100353EA9D
:104130000A0305D00EE040228DF80420012208E099
:104140005CEA010206D030228DF804208DF80500CB
:1041500002229046009B83F0080353EA0A030AD127
:104160005CEA010201D1620705D530228DF80420F6
:104170004FF001087F1E582804D034A003900EA8E9
:1041800002900DE036A0F9E753466046009AFCF72E
:1041900017F884460398825C0298401E02900270D1
:1041A0005CEA0100F0D1029806A9081A00F1200A81
:1041B000600702D524F4803400E00127574502DD72
:1041C000A7EB0A0000E0002000EB0A010090059830
:1041D0004144401A0590E00306D45B462146179AF5
:1041E000059800F0B3F90544002706E001A85A46F7
:1041F000C05D179990476D1C7F1C4745F6DBE003B7
:104200000CD55B462146179A059800F09FF90544A6
:1042100004E030205A46179990476D1C0099481EBB
:1042200000900029F5DC08E0029802995A460078CF
:10423000491C0291179990476D1CBAF10001AAF12F
:10424000010AF1DC65E10000092801003031323358
:1042500034353637383961626364656600000000C2
:1042600030313233343536373839414243444546AC
:104270000000000000F058F90544761C3078002852
:104280007FF4ECAD19B02846BDE8F08F620700D48A
:10429000062709F1070222F0070CFCE80223E14699
:1042A00003F000485FEA080C02D00FF2702C0DE01A
:1042B0005FEA045C02D50FF2682C07E05FEAC47C79
:1042C00002D00FF2602C01E0AFF2700C4FF0FF381B
:1042D00023F00043CDF850C065280CD006DC4528FB
:1042E00009D046281DD047283DD13DE0662818D08A
:1042F00067287ED138E00021112F01DB112000E07A
:10430000781CCDE9000106A90EA8FFF795FCDDE9B0
:104310000F010E9A03910021009207F1010A049106
:104320004DE04FF000400097CDE9011006A90EA81E
:10433000FFF782FCDDE90F0203920E9B1199002228
:10434000DDF80CA00093049211B9791C00EB010A6E
:10435000B7EB0A0004D4C0F1FF3007F1010A049062
:10436000AAEB0700019044E0012F00DA01270021A9
:10437000112F01DD112000E03846CDE9000106A92A
:104380000EA8FFF759FCDDE90F010E9A03910021F9
:1043900004910092BA4621070CD40399514500DAE2
:1043A0008A46BAF1010F05DD009AAAF10101515CBC
:1043B000302908D0B84202DA10F1040F06DA0121E0
:1043C000CDE9011015E0AAF10101E9E7002805DCBB
:1043D000049901440491AAEB000102E0411C5145FB
:1043E00000DD8A460499401A401C01904FF00040BD
:1043F0000290200704D40198504501DBCDF80480D9
:1044000000208DF84F0002980DF14F07B0F1004FDA
:1044100025D02B200E9002984FF0020800280CDACD
:10442000404202902D200E9007E00A210298FCF7EE
:1044300051F93031029007F8011DB8F10001A8F1DF
:104440000108F2DC02980028EFD1791E0E9808705E
:10445000307800F0200040F0450007F8020D12A867
:10446000C01B00F107081498007800B1012000EB90
:104470000A01019801EBE07105984144401A401E81
:104480000590E00306D45B462146179A059800F094
:104490005DF805441498007818B15A46179990476A
:1044A0006D1CE00324D55B462146179A059800F061
:1044B0004DF805441CE00498002807DBDDE9030102
:1044C000884203DD0098405C179901E0179930207D
:1044D0005A469047049805F10105401C0490019844
:1044E000401E019004D12E205A46179990476D1C0A
:1044F000BAF10001AAF1010ADDDC05E017F8010BB1
:104500005A46179990476D1CB8F10001A8F10108AF
:10451000F4DC5B462146179A0598ABE62D000000B7
:104520002B000000200000002DE9F041044600258A
:104530001E461746880404D405E039462020B047BB
:104540006D1C641EF9D52846BDE8F0812DE9F041C7
:10455000044600251E469046C80301D5302700E0DA
:104560002027880404D505E041463846B0476D1C35
:10457000641EF9D52846BDE8F0814A68002A06D0B5
:104580000A68531C0B6010704868401E48607047F2
:104590000A68531C0B6010707047000070B5054628
:1045A0000E4609A0FFF7E8FA002405E0295D09A0FE
:1045B000FFF7E2FA641CA4B2B442F7DBBDE8704036
:1045C00005A0FFF7D9BA00000D0A4572726F723A62
:1045D00020000000256300000A00000070B50446BA
:1045E000064DE1B22846FFF7C1FA80212846FFF7C1
:1045F00057FA0028F9D0204670BD00000010014095
:1046000010B5002821D0114B0022001F196803E0CB
:10461000814203D80A4649680029F9D152B113688A
:10462000841A9C4204D1006818441060104602E0CD
:10463000506000E0186039B102680B1A934203D150
:104640000B681A4402604968416010BD9C0000205C
:1046500070B505460E4609A0FFF78EFA002405E066
:10466000295D09A0FFF788FA641CA4B2B442F7DB05
:10467000BDE8704005A0FFF77FBA00000D0A496E43
:10468000666F3A2000000000256300000A00000069
:10469000FDF704F80E4840210180802101800C497B
:1046A0008015891C0880FDF7C7FAFCF7F3FCFCF7BE
:1046B000C1FE08A0FFF760FA0DA0FFF75DFA1AA08F
:1046C000FFF75AFA22A0FFF757FA00F07FFBFEE748
:1046D000181402400D0AD2B0BBF020475053C4A3B7
:1046E000BFE9B2E2CAD4C0FDB3CC0D0A000000009D
:1046F0000D0AB1BEB3CCD0F2B6D45344BFA8C4DACD
:10470000B5C46770736C6F672E747874CEC4BCFECA
:10471000B6A8CEBBC8D5D6BECAFDBEDDBDF8D0D0CA
:10472000BDE2C2EB0D0A00000D0AC8F4D0E8D2AA1F
:10473000B6D4475053C4A3BFE9B4AEBFDAB4ABBBE1
:10474000D8B5C4CAFDBEDDBDE2C2EBA3AC0000001B
:10475000BFC9D7A2CACDB5F46770735F636F6E66C9
:1047600069672E68CEC4BCFEB5C4BAEA5F5F475025
:10477000535F4C4F475F46494C45200D0A000000EF
:10478000F0B50B30154D20F007010024144A0FE05E
:1047900003688B420BD38B4205D95E1A43184768D6
:1047A000C3E9006700E04368136002C004E0021D33
:1047B00010680028ECD12046002802D1286808B1F2
:1047C0000020F0BD064A07481060074A121A22F07E
:1047D0000702C0E9002401202860D7E7A0000020DC
:1047E0009C0000202C480020285800202DE9F04192
:1047F000002602784A6290ED280B81ED0A0B90EDBD
:104800002A0B81ED0C0B90ED2C0B81ED0E0B002390
:104810004FF0010C002200EB83070DE0BC6854B19F
:1048200002EB820501EB8505D5F87083444502D182
:10483000C5F874C3761C521CD1F86C439442EDDC6D
:104840005B1C252BE6DBC1F86863086840F080003C
:104850000860BDE8F08170B5D0E900329A4233DCDF
:104860002523B3EB820F2FDB012A01DA01224260FC
:104870008268C1F86C234268521E92008368141D3E
:10488000A34201DA9D1A00E00425002216E04368E5
:104890005B1E02EB830302EB820403EB830300EB5A
:1048A000840401EB830303F55C73E6681E606669AC
:1048B0009E60A669DE60E4691C61521CAA42E6DBC8
:1048C000086840F04000086070BD70B504460D46B1
:1048D000E0682861206968616069A861A069E86191
:1048E000E06B286294ED120B85ED0C0B94ED140B2C
:1048F00085ED140B94F828004E281AD094ED080B7F
:1049000051EC100B81F00041C5E9100194F838001A
:10491000452811D094ED0C0B51EC100B81F00041A7
:10492000C5E91201206CE867286840F480502860CF
:1049300070BDD4E90801E7E7D4E90C01F0E770B5F0
:1049400005460C4695F83800412802D0562809D073
:104950000CE0216A022001B92062616A012905D1B7
:10496000606203E00020206201206062287A4E2805
:1049700023D095ED000B51EC100B81F00041C4E900
:104980001001287E45281BD095ED040B51EC100B2F
:1049900081F00041C4E91201A86A2061E86A6061FF
:1049A000286BA061686BE06195F8390084F87800A5
:1049B000206840F40070206070BDD5E90001DEE79A
:1049C000D5E90401E6E7000070B505460C46287FEE
:1049D000412802D0562809D00CE0216A022001B9F2
:1049E0002062616A012905D1606203E00020206233
:1049F000012060621C222946201DFBF720FC95F84F
:104A000028004E2830D095ED080B51EC100B81F0AA
:104A10000041C4E9100195F83800452827D095EDEC
:104A20000C0B51EC100B81F00041C4E9120195ED23
:104A3000100B84ED160B95ED100B9FED0E1B51EC3A
:104A4000100B53EC112BFBF71BFDC4E9180195ED7E
:104A5000120B84ED1A0B95F8590084F87800206841
:104A600040F40060206070BDD5E90801D1E7D5E9C8
:104A70000C01DAE76F1283C0CAA1FD3F90ED000B75
:104A800081ED1A0B90ED040B81ED1C0B90ED080BE2
:104A900081ED160B90ED0C0B81ED180B90F83900A1
:104AA00081F87800086840F480600860704710B5AD
:104AB0000C4601461C22201DFBF7C1FB206840F478
:104AC0008070206010BD70B504460D46E068286116
:104AD000206968616069A861A069E861E06B28628B
:104AE00094ED120B85ED0C0B94ED140B85ED140B6E
:104AF00094F828004E2818D094ED080B51EC100BB8
:104B000081F00041C5E9100194F8380045280FD024
:104B100094ED0C0B51EC100B81F00041C5E9120132
:104B2000286840F00100286070BDD4E90801E9E779
:104B3000D4E90C01F2E72DE9F041002642684A620F
:104B400090ED280B81ED0A0B90ED2A0B81ED0C0BFB
:104B500090ED2C0B81ED0E0B00234FF0010C002289
:104B600000EB83070DE0BC6854B102EB820501EB5A
:104B70008505D5F88480444502D1C5F888C0761CE7
:104B8000521CD1F880409442EDDC5B1C252BE6DB07
:104B9000CE67086840F002000860BDE8F08170B59B
:104BA000D0E900329A4232DC2523B3EB820F2EDBB0
:104BB000012A01DA012242608268C1F8802042683D
:104BC000521E92008368141DA34201DA9D1A00E070
:104BD0000425002215E043685B1E02EB830302EB11
:104BE000820400EB840403EB830301EB8303E66898
:104BF00043F8846F66699E60A669DE60E4691C61A3
:104C0000521CAA42E7DB086840F00400086070BD4F
:104C100070B505460C46287F412802D0562809D099
:104C20000CE0216A022001B92062616A012905D1E4
:104C3000606203E000202062012060621C2229469D
:104C4000201DFBF7FCFA95F828004E2828D095ED9A
:104C5000080B51EC100B81F00041C4E9100195F8EC
:104C6000380045281FD095ED0C0B51EC100B81F04E
:104C70000041C4E9120195ED100B9FED0C1B51ECA6
:104C8000100B53EC112BFBF7FBFBC4E9180195ED5E
:104C9000120B84ED1A0B206840F00800206070BDF4
:104CA000D5E90801D9E7D5E90C01E2E76F1283C025
:104CB000CAA1FD3F8068C1F854060E4AC1F85826C3
:104CC000002809D001280BD002280DD007280FD1C9
:104CD000114609A000F061BB06490CA000F05DBBC5
:104CE00004490EA000F059BB024911A000F055BBC9
:104CF00070470000284700204750545854207573CF
:104D0000657220696E666F3A2025730047505458CB
:104D100054206572726F723A2025730047505458C0
:104D200054207761726E696E673A20257300000027
:104D30004750545854206E6F746963653A20257348
:104D40000000000090ED000B81ED1A0B90ED040BBC
:104D500081ED1C0B90ED0C0B81ED180B086840F0F9
:104D6000100008607047000010B5C2B00C469FEDFF
:104D7000090BFF2C0BDC0146224601A8FBF75FFA6A
:104D800001A90020085541A901A8FEF731FF42B052
:104D900010BD0000000000000000000030B5C1B0F0
:104DA00003460C4615460020FF2C0CDC2246194613
:104DB0006846FBF744FA00200DF804002A4640A993
:104DC0006846FBF77EFA41B030BD00002DED048B44
:104DD000ADF5E16D0024BA48FCF754FC4FF478457A
:104DE00000212846FCF748FCB6490B88B6490A88DA
:104DF00000210846FCF78EFC00212846FCF73CFC0D
:104E0000FCF734FCC088B1A1FCF73CFDFCF72EFC9C
:104E1000C0884FF6FF7606EA4000B2A1FCF732FDEB
:104E200001F0B8FBB349016001F0B4FBB249416045
:104E300001F0B0FBB14981602AA801F0A2FC25A8CD
:104E400001F058F9AE4FDFF8BC8200254FF48079AD
:104E5000387840B12AAB4A46AB4925A800F074FB2C
:104E60003D7001240BE098F8000040B12AAB4A469F
:104E7000A64925A800F068FB88F800500124002C02
:104E8000E6D0012308221EA92BA8FCF7DFF9DDE9F3
:104E900021122398CDE9001202901EA99CA00EC9F0
:104EA00001F26C71FEF768FE9DED3A0B00F094FA8A
:104EB000B0EE408AF0EE608A9DED3C0B00F08CFA7B
:104EC000B0EE409AF0EE609A8DED009B53EC182BFB
:104ED00097A0FEF751FE9DED3E0B9AA053EC102BD0
:104EE000FEF74AFE9DED420B9BA053EC102BFEF704
:104EF00043FE9DED440B9DA053EC102BFEF73CFEB2
:104F00009EA04A9A4999FEF737FE0DF58261A5A049
:104F100006C9FEF731FE9DED380BADA08DED020BFD
:104F20009DED360B8DED000B9DED340B53EC102BEE
:104F3000FEF722FE1F20FCF7ABFBFCF797FBC088B7
:104F4000ABA100EB800080B2FCF776FC3046FCF7AA
:104F50009FFB20980090DDE91E2302F26C72A7A14E
:104F600005A8FEF719FEFCF781FBC08805A900EB38
:104F7000400006EA4000FCF75FFC23980090DDE962
:104F80002123A4A105A8FEF707FEFCF76FFBC0884C
:104F900005A9C0EBC00080B2FCF74EFC53EC182B07
:104FA000A2A105A8FEF7F8FDFCF760FBC08805A9E3
:104FB00006EAC000FCF740FC53EC192B9EA105A8A3
:104FC000FEF7EAFDFCF752FBC08805A900EBC00024
:104FD00080B2FCF731FC9BA105A8499AFEF7DCFDE5
:104FE000FCF744FBC08805A900EB800006EA4000FE
:104FF000FCF722FC99A105A84A9AFEF7CDFDFCF723
:1050000035FBC18801EB410000EBC10080B205A96E
:10501000FCF712FC97A105A8DDF81024FEF7BCFDF3
:10502000FCF724FBC08805A900EB400006EA8000DD
:10503000FCF702FC95A105A8DDF81424FEF7ACFDF1
:10504000FCF714FBC18801EB810000EBC10080B2CA
:1050500005A9FCF7F1FB9DED3E0B92A153EC102B43
:1050600005A8FEF799FDFCF701FBC08805A9C0EB78
:10507000C00006EA4000FCF7DFFB9DED420B8EA16D
:1050800053EC102B05A8FEF787FDFCF7EFFAC0885C
:1050900005A9C0EB001080B2FCF7CEFB9DED440BE0
:1050A0008AA153EC102B05A8FEF776FDFCF7DEFA7B
:1050B000C08805A906EA0010FCF7BEFB0024C7E67D
:1050C0001C0000202C0000202A0000202057696CC2
:1050D00064666972652053544D33322D463430373F
:1050E000000000002020475053206D6F64756C65F0
:1050F00000000000A16700089D4500085146000817
:105100001100002010000020A8000020A8010020AD
:105110000D0ACAB1BCE425642D253032642D25303A
:1051200032642C25643A25643A25640D0A00000097
:105130000D0ACEB3B6C8A3BA25662CBEADB6C82537
:10514000660D0A000D0ABAA3B0CEB8DFB6C8A3BA7E
:10515000256620C3D72000000D0ACBD9B6C8A3BA54
:105160002566206B6D2F6820000000000D0ABABD77
:10517000CFF2A3BA256620B6C80000000D0AD5FDFF
:10518000D4DACAB9D3C3B5C4475053CEC0D0C7A32D
:10519000BA25642CBFC9BCFB475053CEC0D0C7A3AF
:1051A000BA2564000D0AD5FDD4DACAB9D3C3B5C493
:1051B000B1B1B6B7CEC0D0C7A3BA25642CBFC9BCA5
:1051C000FBB1B1B6B7CEC0D0C7A3BA25640000000A
:1051D0000D0A50444F50A3BA25662C48444F50A3A3
:1051E000BA2566A3AC56444F50A3BA25660000000A
:1051F0002047505320496E666F3A00002044617486
:10520000653A2534642F253032642F2530326420EE
:10521000000000002054696D653A253032643A255B
:105220003032643A2530326400000000206C617432
:10523000203A252E36662000206C6F6E203A252EEF
:1052400036660000204750532053617420696E2059
:105250007573653A253264200000000020475053E2
:105260002053617420696E20766965773A2532642F
:1052700000000000204244532053617420696E20D6
:105280007573653A253264200000000020424453C3
:105290002053617420696E20766965773A253264FF
:1052A0000000000020416C7469747564653A25340F
:1052B0002E3266206D0000002073706565643A250B
:1052C000342E3266206B6D2F6800000020416E671F
:1052D0006C653A25332E3266206465670000000055
:1052E0000FB410B5ADF5816D01F054F94468002C90
:1052F00010D00DF2144340F2FF3101A8DDF8102464
:10530000FEF75EFC01460020CDF80404002901DD13
:1053100001A8A0470DF5816D10BC5DF814FB2DE9C7
:10532000F04704468846174604EB0806002000258F
:105330004FF0FF39C7F800900BE02378242B02D1FF
:1053400008B1002407E02A2B0DD000B15D40641C99
:10535000401CB442F1D33968002902DA002C00D095
:105360000020BDE8F087611DB142F4D8E1780D2935
:10537000F1D121790A29EED110220221601CFFF718
:105380000DFD01463860301BA8EB0000401DA9420E
:10539000E1D0C7F800900024DDE70FB410B5ADF5FB
:1053A000816D01F0F7F88468002C10D00DF21443E1
:1053B00040F2FF3101A8DDF81024FEF701FC0146A0
:1053C0000020CDF80404002901DD01A8A0470DF557
:1053D000816D10BC5DF814FB10B52DED068BB0EEA1
:1053E000409AF0EE609A51EC190B9FED12AB53EC22
:1053F0001A2BFBF7B7F8FBF735F9FBF722F941EC6D
:10540000180B53EC1A2B51EC180BFBF739F853EC33
:10541000192BFBF732F89FED091B53EC112BFBF70F
:10542000A1F853EC182BFAF784FF41EC100BBDECFC
:10543000068B10BD00000000000059400000000075
:1054400000004E4070B50546052901DA002070BD08
:105450003C4C052228462168FAF726FF00284FD049
:10546000052228466168FAF71FFF00284AD0052266
:105470002846A168FAF718FFE8B305222846E16834
:10548000FAF712FFC0B3052228462169FAF70CFF8C
:1054900098B3052228466169FAF706FF70B3052222
:1054A0002846A169FAF700FF48B305222846E169BA
:1054B000FAF7FAFE80B305222846216AFAF7F4FECD
:1054C00058B305222846616AFAF7EEFE68B3052252
:1054D0002846A16AFAF7E8FE50B305222846E16A99
:1054E000FAF7E2FE38B305222846216BFAF7DCFE14
:1054F00020B3002070BD07E008E009E00AE00DE0FD
:105500000120F7E70220F5E70420F3E70820F1E7A0
:105510001020EFE72020EDE702E003E04020E9E77C
:105520008020E7E74FF48070E4E74FF40070E1E794
:105530004FF48060DEE74FF40060DBE74FF480500B
:10554000D8E7000064000020F8B506461D46002498
:1055500000200090304600F007FE69E0641C4028FF
:1055600055D00EDC08282FD006DC01281DD00228DB
:1055700020D0042859D122E010282AD0202854D144
:105580004FE0B0F5806F33D008DC802844D0B0F510
:10559000807F32D0B0F5007F47D133E0B0F5006FA7
:1055A00021D0B0F5805F40D118E029460098FFF780
:1055B0008AFA3AE029460098FFF7BDFA35E0294615
:1055C0000098FFF7ECFA30E029460098FFF720FB3F
:1055D0002BE029460098FFF7B5FB26E02946009806
:1055E000FFF773F921E029460098FFF7EDF91CE079
:1055F00029460098FFF742FA17E029460098FFF77E
:1056000056FA12E029460098FFF799F90DE029466D
:105610000098FFF720F908E029460098FFF7E6F820
:1056200003E029460098FFF745FB0098FEF7E8FFE6
:105630006946304600F086FD00288FD12046F8BD2F
:1056400070B590B005460E461446B8212046FAF7CC
:105650000FFE3146284601F086F804F1B00004F14F
:10566000A801CDE90E108038011F04F1A00204F159
:105670003403CDE90C320A1FCDE90A101038011F9E
:10568000131FCDE908320A1FCDE906101038131F89
:10569000011FCDE904320A1F231DCDE90032CDE9F7
:1056A0000210234607A23146284600F077FF112852
:1056B00005D013A0FFF714FE002010B070BD01202C
:1056C000FBE700002442444753412C25432C25642A
:1056D0002C25642C25642C25642C25642C25642C15
:1056E00025642C25642C25642C25642C25642C250C
:1056F000642C25642C25662C25662C25662A000042
:105700004244475341207061727365206572726F25
:105710007221000070B592B005460E4614465C2119
:105720002046FAF7A5FD3146284601F01CF804F1A1
:105730005800011F0A1FCDE91010143804F1480366
:10574000011FCDE90E320A1FCDE90C101438143BAD
:10575000011FCDE90A320A1FCDE908101438143BA5
:10576000011FCDE906320A1FCDE90410143B14389D
:10577000211DCDE90232CDE9001023460E4A314603
:10578000284600F00BFF6168491E8900A2680B1DC6
:105790009A4201DA511A00E00421032202EB81014E
:1057A000884201DB132805DD04A0FFF799FD0020E6
:1057B00012B070BD0120FBE798B500084244475382
:1057C00056207061727365206572726F72210000DD
:1057D00070B5CEB005460E46144680212046FAF735
:1057E00047FD3146284600F0BEFF04F1680204F18F
:1057F0006003CDE9093204F1780004F17001CDE9CC
:105800000B10203A203BCDE9053220382039CDE974
:105810000710183A183BCDE901321C38011FCDE9B9
:1058200003101C3800900EAB0EA23146284600F043
:10583000B5FE0E2805D018A0FFF752FD00204EB08F
:1058400070BD0EA8FAF71FFD014622460EA8FEF70E
:10585000ADFA20B115A0FFF743FD0020EFE70120CE
:10586000EDE7000024474E4747412C25732C256661
:105870002C25432C25662C25432C25642C25642CB3
:1058800025662C25662C25432C25662C25432C25A6
:10589000662C25642A000000474E4747412070616E
:1058A000727365206572726F72210000474E474720
:1058B000412074696D652070617273652065727234
:1058C0006F72210070B5C6B005460E4614464021E1
:1058D0002046FAF7CDFC3146284600F044FF04F19B
:1058E0003900411ECDE9041029383039CDE90010C6
:1058F00006AB04F11802CDE9022323460EA231467D
:10590000284600F04BFE072805D013A0FFF7E8FC5F
:10591000002046B070BD06A8FAF7B5FC014604F1B8
:105920001C0206A8FEF742FA20B110A0FFF7D8FC2F
:105930000020EEE70120ECE724474E474C4C2C2595
:10594000662C25432C25662C25432C25732C2543BA
:105950002C25432A00000000474E474C4C20706124
:10596000727365206572726F72210000474E474C5A
:105970004C2074696D652070617273652065727268
:105980006F72210070B5CEB005460E4614466021F8
:105990002046FAF76DFC3146284600F0E4FE04F19B
:1059A0005002CDE9094204F15900411ECDE90B1026
:1059B000083A04F14003CDE90532201D011DCDE96F
:1059C0000710203A203BCDE9013234302831CDE9AF
:1059D00003101C3800900EAB10A23146284600F090
:1059E000DDFD0D2807D00E2805D019A0FFF778FCA3
:1059F00000204EB070BD0EA8FAF745FC01462246C5
:105A00000EA8FEF7D3F920B116A0FFF769FC00201D
:105A1000EFE72068643020600120EAE724474E5217
:105A20004D432C25732C25432C25662C25432C25F2
:105A3000662C25432C25662C25662C2532642532C0
:105A4000642532642C25662C25432C25432A00002E
:105A5000474E524D43207061727365206572726FBC
:105A600072210000474E524D432074696D652070CD
:105A700061727365206572726F72210070B588B0B3
:105A800005460E46144640212046FAF7F1FB314602
:105A9000284600F068FE04F13900411ECDE90610E9
:105AA00004F1300204F12803CDE904321938203919
:105AB000203A203BCDE90032CDE90210234611A265
:105AC0003146284600F06AFD092805D016A0FFF7E8
:105AD00007FC002008B070BD207A54280AD1207E2F
